:107E000001C0C4C0112484B7882361F0982F9A70F0
:107E1000923041F081FF02C097EF94BF282E80E09E
:107E2000A0D0EEC082E08093C00088E18093C100C2
:107E300086E08093C20080E18093C4008EE091D000
:107E400093E0E92EDD24D39425E0C22E31E1B32E58
:107E50007CD0813451F479D0182F89D0113811F0A9
:107E600083E001C088E06AD066C0823411F484E106
:107E700003C0853419F485E082D05DC0853539F4BE
:107E800064D0C82F62D0D82FCC0FDD1F53C08635E9
:107E900021F484E074D080E0E6CF843609F02DC070
:107EA00054D053D0F82E51D0A82E00E011E04DD080
:107EB000F80181938F01FE12FACF59D0F5E4AF1289
:107EC00001C0FFCFFE01E7BEE89507B600FCFDCF7D
:107ED000A0E0B1E0FE018D919D910C01D7BEE89527
:107EE00011243296FA12F7CFFE01C7BEE89507B605
:107EF00000FCFDCFB7BEE8951EC0843771F425D0D5
:107F000024D0F82E22D033D08E01F80185918F0134
:107F100015D0FA94F110F9CF0EC0853739F427D077
:107F20008EE10CD085E90AD08FE09DCF813511F428
:107F300088E017D01CD080E101D08ACF9091C0009A
:107F400095FFFCCF8093C60008958091C00087FF05
:107F5000FCCF8091C00084FD01C0A8958091C6002F
:107F60000895E0E6F0E098E1908380830895EDDFE6
:107F7000803219F088E0F5DFFFCF84E1DFCFCF93C7
:107F8000C82FE3DFC150E9F7CF91F1CFFC010A011F
:107F900067BFE895112407B600FCFDCF667029F095
:0C7FA000452B19F481E187BFE895089596
:027FFE00030876
:0400000300007E007B
:00000001FF
